:100000000C94D7030C94F4030C94F4030C94F403B1
:100010000C94F4030C94F4030C94F4030C94F40384
:100020000C94F4030C94F4030C94412B0C94FD2ACF
:100030000C943E2C0C94F4030C94F4030C94F403F1
:100040000C94F4030C94F4030C94F4030C94F40354
:100050000C94F4030C941A2C0C94F4030C94F403F5
:100060000C94F4030C94F4030C94F4030C94F40334
:100070000C94F4030C94F4030C94F4030C94F40324
:100080000C94F4030C94F4030C94F4030C94F40314
:100090000C94F4030C94F4030C94F4030C94F40304
:1000A0000C94F4030C94F4030C94F40305010980FC
:1000B000A101850319012AB700150126B700950192
:1000C00075108100C0050C0901A101850419012AE0
:1000D000A002150126A002950175108100C005013E
:1000E0000906A1018506050719E029E71500250184
:1000F0009508750181020507190029EF15002501F2
:1001000095F075018102050819012905950575010C
:100110009102950175039101C00660FF0961A1017B
:100120000962150026FF00952075088102096315F4
:100130000026FF00952075089102C005010906A15F
:1001400001050719E029E7150025019508750181CA
:10015000029501750881010507190029FF15002680
:10016000FF00950675088100050819012905950508
:1001700075019102950175039101C000047F3F1F35
:10018000643214643214783C1E1E140A05FD377A5A
:10019000585A000004E6D6B44602002101160000B9
:1001A00000742FE5A3E00294010B5D003D8889C631
:1001B0005436C3174FE4E4F11CD54D9AA9B7FED1CC
:1001C0009561145D741C7B75B9EAC699E07A78482C
:1001D000E94F82A4670F7AAD2B193C5A8D12F213A6
:1001E0009152A487626B1C6E4AEA52718E86D5FBCF
:1001F000FDB4415B09C53C6EC7D3056544E9483889
:1002000003A57BE71ED5087A711C1DDE93673D169A
:10021000FAC2D8521FA27108A2D78D7B87FC252B6A
:100220006813395F03045B40ADF3BFD798D36C1CF0
:10023000D462ADA855ACC962298F00BFB55F52B476
:100240008E8F24757871B4FEE9E910DE337EB83FF5
:100250002F059DB6D8D1A7B0174ECB725F1D08B73A
:1002600015C61595033B350311A3184FF2921A7664
:100270006E345383E181D91F7518F72F236E4FC356
:10028000FEF9D3B0EC5AC70F5CE88EF380AAE244C3
:10029000AC10E8FA45DD02693102810F6BA0272816
:1002A000834B6BE75D21CF7CF25ADEF411106CF1C9
:1002B00039C147EFDCD7EB000003CC4A17F2A25656
:1002C0001B0001A702950500009675D931B1C467DE
:1002D000FB020000000004595A0001010101010164
:1002E00001010102020202020202020203030303ED
:1002F00003030303040404040404040505050505BD
:10030000060606060607070707070808080809097A
:1003100009090A0A0A0B0B0B0C0C0C0D0D0D0E0E25
:100320000E0F0F0F101011111112121313141415B8
:100330001516161717181819191A1A1B1B1C1D1D2C
:100340001E1E1F2020212222232424252626272882
:1003500029292A2B2C2D2D2E2F30313232333435B2
:10036000363738393A3B3C3D3E3F404142434445B5
:10037000464748494A4C4D4E4F5051535455565894
:10038000595A5B5D5E5F616264656668696B6C6D3E
:100390006F7072737577787A7B7D7E8082838587B4
:1003A000888A8C8E8F91939596989A9C9EA0A2A3F2
:1003B000A5A7A9ABADAFB1B3B5B7BABCBEC0C2C4F7
:1003C000C6C9CBCDCFD1D4D6D8DBDDDFE2E4E7E9B7
:1003D000EBEEF0F3F5F8FAFDFFFFAA7F554022237C
:1003E000252628292A2C2D2F3032333536383A3B12
:1003F0003D3E4042434547494A4C4E505153555764
:10040000595A5C5E6062646668696B6D6F71737582
:1004100077797B7D7F81838587898A8C8E90929482
:1004200096989A9C9E9FA1A3A5A7A8AAACAEAFB18F
:10043000B3B4B6B8B9BBBCBEBFC1C2C3C5C6C7C9D9
:10044000CACBCCCDCED0D1D2D2D3D4D5D6D7D7D893
:10045000D9D9DADADBDBDBDCDCDCDCDCDDDDDDDDE5
:10046000DCDCDCDCDCDBDBDBDADAD9D9D8D7D7D6ED
:10047000D5D4D3D2D2D1D0CECDCCCBCAC9C7C6C5A4
:10048000C3C2C1BFBEBCBBB9B8B6B4B3B1AFAEACEA
:10049000AAA8A7A5A3A19F9E9C9A98969492908E95
:1004A0008C8A89878583817F7D7B79777573716F6E
:1004B0006D6B6968666462605E5C5A59575553514A
:1004C000504E4C4A4947454342403E3D3B3A383600
:1004D000353332302F2D2C2A2928262523221400AB
:1004E0001A000800150017001C00180004681664A4
:1004F000076109620A000B000D721D001B00060057
:100500001900050011001000E000E200E3002A00DD
:100510002C41E600E7000C00120013003600E40056
:10052000000000000E710F7428003700000000006A
:1005300000000E710F7416640761000000000000D7
:100540001E001F00200021002200230024001E02A4
:100550001F02200221022202230224022F022F0066
:1005600026022D02270230003002C25CC35C01006B
:1005700001000100010001002500260027003300D2
:1005800001000000000025022E002D0034000000B4
:10059000000000000E710F74166407610000000077
:1005A0000000010001006F038A0EBD0E0000020072
:1005B00002006B038A0EBD0E0000030001007003F1
:1005C0008A0EBD0E00000400020055038A0EBD0E07
:1005D000D1060500010071038A0EBD0E0000060061
:1005E000020057038A0EBD0E0000070002006D03D3
:1005F0008A0EBD0E00000800010072038A0EBD0EB7
:1006000000001200020073038A0EBD0E00001300EA
:10061000020075038A0EBD0E00001400010077036E
:100620008A0EBD0E000015000000000057060217DC
:10063000000009025B00030100A0FA0904000001A8
:100640000301010009211101000122400007058179
:100650000308000109040100020300000009211140
:100660000100012222000705820320000107050383
:100670000320000109040200010300000009211108
:10068000010001226D000705840320000112010012
:100690000200000008317401000100010203011C86
:1006A000037600690061006C003A00660036003491
:1006B000006300320062003300630000001E037418
:1006C000006F006D0069006E00610062006F0078CD
:1006D0000031002F00710061007A0000001A034D04
:1006E0000041004E005500460041004300540055B3
:1006F00000520045005200000004030904000000FD
:1007000000000000000000000000000000000000E9
:1007100000000000000000000000000000000000D9
:10072000007E0F00D4FFFFFFC7000000780000002C
:1007300000000000002A2B2800000000000000003C
:10074000000000000000000029000000002C1E3402
:1007500020212224342627252E362D3738271E1F08
:10076000202122232425263333362E37381F040533
:10077000060708090A0B0C0D0E0F101112131415A1
:10078000161718191A1B1C1D2F3130232D3504057F
:10079000060708090A0B0C0D0E0F10111213141581
:1007A000161718191A1B1C1D2F3130354C00112437
:1007B0001FBECFEFDAE0DEBFCDBF11E0A0E0B1E0B9
:1007C000ECEAFAE602C005900D92AA39B107D9F712
:1007D00024E0AAE9B1E001C01D92AF34B207E1F70D
:1007E0000E94652C0C9430350C940000E8EDF0E08C
:1007F00080818E7F80831092E2001092DA00109246
:10080000E100A0EEB0E08C9181608C9380818F77C5
:10081000808319BCA7EDB0E08C918E7F8C93808192
:100820008F7E808310921E0408952091E400309101
:10083000E50095E6A9012091EC00822F817020FF50
:1008400006C08091E80080FF06C080E008952091F6
:10085000E80022FD1AC080914C04882389F085307D
:1008600089F08091EB0085FD0FC02091E40030916C
:10087000E50042175307F9F29150E1F684E008953C
:1008800082E0089583E0089581E00895EF92FF9259
:100890000F931F93CF937C018B010E941504C82FE7
:1008A000811117C08091E80085FD0BC08091E800A0
:1008B0008E778093E8000E941504882399F3C82F4F
:1008C00008C0F70181917F018093F1000150110967
:1008D00049F78C2FCF911F910F91FF90EF900895C2
:1008E000CF93FC0180914C04843001F5C091E90064
:1008F000CF702091EC00922F917020FD90E8C92BD1
:1009000082E08093E9008091E80080FF0CC050E015
:1009100040E060E270E0CF010E9446048091E80070
:100920008E778093E800CF70C093E900CF9108954F
:100930008091440487FF13C08091E80082FF06C0C5
:100940008091E8008B778093E80004C080914C048C
:100950008111F2CF089580914C048823D9F38091BE
:10096000E80080FFF8CF8091E8008E77ECCF982FD9
:100970009093E900242F762F50E0891731F0709181
:10098000EC002091ED005091F00021FD07C09F5F29
:10099000973071F78093E90081E008953091EB0082
:1009A0003E7F3093EB003091ED003D7F3093ED00C2
:1009B0003091EB0031603093EB007093EC002093AA
:1009C000ED005093F0002091EE0027FDE0CF80E095
:1009D0000895B0E0A0E0EFEEF4E00C947034C8EDC0
:1009E000D0E088818F7E8883E7EDF0E080818160B0
:1009F000808384E082BF81E080931E0488818E7FA3
:100A0000888302EE10E0F80110821092DA0081EE85
:100A1000C82ED12CF601108288818F778883888137
:100A20008068888388818F7D888319BC10924C04EC
:100A300010924304109242041092410490EEE92E69
:100A4000F12CF70180818B7F80838881816088838E
:100A500042E060E080E00E94B704F60180818E7F72
:100A60008083F801808181608083808188608083B9
:100A7000F70180818E7F8083888180618883CDB7F4
:100A8000DEB7E8E00C948C34FC0180914A0490912C
:100A90004B0486179707A0F06115710529F4909112
:100AA000E8009E779093E80090E06115710551F49D
:100AB000911108C08091E80082FF34C080E0089561
:100AC000BC01F2CF80914C048823C1F18530C1F183
:100AD0008091E80083FD30C08091E80082FDEACF7C
:100AE0008091E80080FFE1CF8091F3002091F20037
:100AF000382F6115710519F02830310558F091E053
:100B00002830310509F090E02091E8002E772093FD
:100B1000E800CBCF81918093F100615071092F5F84
:100B20003F4FE7CF80914C04882341F0853041F05E
:100B30008091E80083FFBECF81E0089582E00895B0
:100B400083E00895089508950895809120040895FC
:100B500087E797E7909301088093000888E19AE07F
:100B60000FB6F894A895809360000FBE9093600034
:100B7000FFCF9C014FB7F894809115049091160413
:100B8000A0911704B09118044FBF821B930B0895D6
:100B90002FB7F8948091150490911604A091170432
:100BA000B09118042FBF08952091120430911304BE
:100BB0002817390771F09093130480931204E09181
:100BC0001004F0911104309721F00084F185E02D9C
:100BD0000995089520910E0430910F0428173907C4
:100BE00071F090930F0480930E04E0911004F09143
:100BF0001104309721F00680F781E02D09950895C2
:100C0000E0911004F0911104309729F00190F081E7
:100C1000E02D0995089580E00895452B39F068236B
:100C200081E06F3F09F080E08170089581E0FCCFA2
:100C3000DC016091050480910604962F891301C0A0
:100C40000895292F30E0F901EE0FFF1FE350FC4F0C
:100C5000408151814A175B07A1F487E08A9FA00178
:100C60008B9F500D11244F515C4F81E0FA0184831A
:100C70009613E6CF2F5F3F4F237033272093050451
:100C800008952F5F3F4F922F9370D8CF10927E031D
:100C900010927D03E1EEF3E08581811102C01482A0
:100CA0001682379683E0ED3FF807B1F70895B0E07C
:100CB000A0E0EDE5F6E00C946E348FEF9FEF44304A
:100CC000510508F469C04091190441FB882780F957
:100CD00090E0880F991F42FB002700F910E0000FF9
:100CE000111F000F111F802B912B40FBCC24C0F84B
:100CF000D12C8C299D2943FB222720F9C22FE0E02B
:100D0000DE2F53E0CC0FDD1F5A95E1F78C2B9D2B86
:100D100044FBAA27A0F9B0E0E4E0AA0FBB1FEA95C4
:100D2000E1F78A2B9B2B45FBEE27E0F9F0E0A5E0ED
:100D3000EE0FFF1FAA95E1F78E2B9F2B46FB222774
:100D400020F930E0B6E0220F331FBA95E1F7822B8D
:100D5000932B47FB222720F930E03695322F2227AC
:100D600037952795822B932B20911A04322F3170BF
:100D7000F32EE82EF92A26952170B22EBB0CA82E50
:100D8000BF28C501BB0CAA0BBB0BFB018083918361
:100D9000A283B38390E080E0CDB7DEB7EAE00C94A5
:100DA0008A34809155039091560390931B01809350
:100DB0001A010895E6E9F2E090E080E066E57AE263
:100DC0004DE75AE22BEC39E27783668351874087FF
:100DD000338722879587848701963E9688309105D0
:100DE00099F7089581152CE5920741F420912E037F
:100DF00030912F03232B11F490E080E00895FA0145
:100E0000811101C0FB010995089580917F02982FFF
:100E10009E7F29F48170826080937F0208958A34D6
:100E2000E8F381708864F8CFAF92BF92DF92EF92BF
:100E3000FF920F931F93CF93DF93082F162FE90193
:100E4000E42FF0E0E752FD4F611110C0E4915E2FF6
:100E50004E2F4983E8835A83DF91CF911F910F91E1
:100E6000FF90EF90DF90BF90AF900895E62EF12CA9
:100E70004491D42EE42FF0E026E0829FC00111249B
:100E80002FEF30E0B9010E94DE33802F90E0880F11
:100E9000991F55E5569FD001579FB00D11248A1B0D
:100EA0009B0B982F990F890F5901AE18BF08AE9E62
:100EB000D001AF9EB00DBE9EB00D11245B2F189FC8
:100EC00080011124012F11275901A01AB10AAE9EE9
:100ED0008001AF9E100DBE9E100D11245901A81A5D
:100EE000B108AE9CC001AF9C900DBE9C900D11242A
:100EF000892F9927281B390B2E9FC0012F9F900DFA
:100F00003E9F900D1124E92F62307105A1F050F43D
:100F10006115710509F49DCF6130710581F0EB2FEA
:100F2000512F97CF6430710569F080F066307105FC
:100F300009F48FCFF4CFE42F4B2F592F8ACFE42F12
:100F4000412F87CFEB2F542F492F83CF4B2F5D2D70
:100F5000E12F7FCF80E00895F894E82FE295EF70BD
:100F6000F0E031A1282F2F7081E090E001C0880FC0
:100F70002A95EAF7982F9095932391A392A1892B14
:100F800082A3789408959091190492FF06C0282FA7
:100F900028712830F9F4877F846093FF06C0282FDA
:100FA00028712831F1F4877E846120911A0420FF92
:100FB00006C0382F38713830D9F4877F816021FF1F
:100FC00006C0282F28712831D1F4877E816194FDD5
:100FD000877E0895282F24712430F9F68B7F88604E
:100FE000DCCF282F2471243101F78B7E8861DDCF7F
:100FF000382F3171313019F78E7F8860E0CF282F7C
:101000002171213121F78E7E8861E1CFCF93DF936B
:10101000EC0182389105B1F108F040C081339105AF
:1010200009F49DC048F58932910509F48DC08A976D
:1010300009F49CC0C11522E5D20708F0BDC0C11556
:1010400031E5D30708F025C1C83ED10508F0A3C09B
:10105000C13ED10588F5C83AD10508F08EC0C53A21
:10106000D10508F0F6C0C130D10531F1209721F14A
:10107000C430D10508F545C08533910509F45FC03A
:10108000C997C1F680911904837009F037C1809126
:101090001A0483FF11C0C9E2D0E00EC0833E91055F
:1010A00099F170F4803E910501F1823E910511F6AF
:1010B0008091190482FD21C0CE01DF91CF91089566
:1010C000863E910561F1873E910571F1843E91055F
:1010D00009F0B0CF80911A0481FFEECF80911904FE
:1010E000C7EED0E084FD0DC0E7CF8091190480FDEC
:1010F00033C090911A0490FFDFCFC3EED0E084FF9D
:10110000DBCFD0E0C0E0D8CF8091190482FDF3C0DE
:1011100090911A0490FDF2C084FFCECFF2CF80915F
:10112000190483FDDDCFC8CF8091190483FDE9C088
:1011300090911A0491FFF0CFC4EED0E0BDCF809122
:10114000190485FFB9CFA7CF8091190485FDDCC0B4
:1011500080911A0483FFB0CFC9E3D0E0ADCF809176
:10116000190486FFA9CFCAE2D0E0A6CF8091190466
:1011700086FFA2CFC1E3D0E09FCFCF3BD10508F6D9
:10118000C85AD0E0CC0FDD1FC65DDE4F0990D88174
:10119000C02DD46491CFC11540E5D40708F064C0D8
:1011A000C11580E4D80708F05CC0CE019A9581157E
:1011B0009F4108F481CFA5CFC11536E5D30718F5B7
:1011C000C11545E5D40708F07DC0C11584E5D807F1
:1011D00008F073C09C2F969596959E012370332737
:1011E000C115D34508F45AC0C1E0D0E002C0CC0F0D
:1011F000DD1F2A95E2F730E2939FC0011124C82B2E
:10120000D92BDA6859CFC1158AE5D80778F4C1150A
:1012100029E5D20708F061C0C11538E5D30708F405
:1012200070CFDC2FCC27C06FD06A46CFCE0190564E
:101230008115904208F065CF8D2F8F710E94C307F2
:1012400090E0982F882788279F719C012C2BE9011B
:1012500042C0C55AD0E0C95DDE4FC881D0E0D0643D
:101260002BCFDF70D06A28CF2C2F269526952370A0
:1012700080E2289F900111248C2F8370C1E0D0E080
:1012800002C0CC0FDD1F8A95E2F7C22BD32BDD689D
:1012900013CFDC2FCC27C16FD06A0ECFC1E0D0E0D6
:1012A00002C0CC0FDD1F2A95E2F720E2929FC00119
:1012B0001124C82BD92BDC68FFCEDC2FCC27C46FC0
:1012C000D06AFACE8C2F0E94C307C82FD0E0DC2F43
:1012D000CC27CC27DF71D062EFCE8C2F8F700E948D
:1012E000C30734E0D695C7953A95E1F7CF709C2FA8
:1012F000EC01D069E1CEC2EED0E0DECEC0EED0E0AF
:10130000DBCEC6EED0E0D8CEC5E3D0E0D5CE80911E
:101310004402882331F0109244021092430210924A
:1013200042020895CF93C82F80911A0482FF0CC007
:10133000809144028C1741F00E94C80590934302AB
:1013400080934202C0934402CF910895809590917A
:101350004E04982390934E04089580959091340301
:10136000982390933403089590913403892B8093AC
:1013700034030895109221021092200210921F024D
:1013800008958091570390915803892B89F00E940A
:10139000C8052091420230914302AC01421B530B1D
:1013A00081E020915703309158034217530708F406
:1013B00080E08170089590911E019923D1F0909161
:1013C000190497FF16C0E82FE695E695E695EE31ED
:1013D000E0F4F0E0E456FE4F282F277081E090E023
:1013E00001C0880F2A95EAF780959281892382832C
:1013F0000895EEE9F1E09191891303C0DF0111979F
:101400001C9291E0E43AF907B1F7089590911E011A
:101410009923C1F09091190497FF14C0E82FE69525
:10142000E695E695EE31F8F4F0E0E456FE4F87706D
:1014300021E030E001C0220F8A95EAF78281822BF9
:1014400082830895AEE9B1E0EFEF90E02D9182172D
:1014500051F0EF3F19F4211101C0E92F9F5F963041
:10146000A9F7EF3F09F408950E2E000CFF0BE45688
:10147000FE4FE6CF20911E029091DD01291302C09C
:1014800080E0089530E0F90153E0EE0FFF1F5A9518
:10149000E1F7E252FE4F5181561306C050815813B6
:1014A00003C05281541304C02F5F3F4F2770E6CF13
:1014B00081E0089580911E029091DD01981301C092
:1014C00008958F5F8770FACF292F973078F587308E
:1014D00068F590E037E0239F800D911D1124682F5F
:1014E000677023E0969587952A95E1F7FC01EE0F4A
:1014F000FF1FE80FF91FE054FE4F50E040E080E08E
:10150000219130E0062E02C0369527950A94E2F725
:1015100021703327042E01C0220F0A94EAF7822B90
:101520004F5F5F4F4330510559F7089580E00895AC
:10153000292F973098F5873088F590E037E0239F82
:10154000800D911D1124282F277041E001C0440F08
:101550002A95EAF723E0969587952A95E1F7FC010D
:10156000EE0FFF1FE80FF91FE054FE4F30E020E0C0
:1015700070E05191DF011197CB01022E02C09695C8
:1015800087950A94E2F781708195852784238527C2
:101590008C932F5F3F4F2330310559F70895929573
:1015A0009F70963091F058F4925F9F70923058F48B
:1015B000803F19F030F4883E30F481E008959A5F5E
:1015C000F4CF843FD1F380E00895883EB0F3813FAB
:1015D000D1F7F3CF9C013A9521153F4150F5FC011D
:1015E000EE27F170BC0166277270AC01442754707D
:1015F0009C012227387094FF0EC080E1EF2B09F484
:1016000080E0672B09F08062452B09F08064232B72
:1016100089F08068089581E0EF2B09F480E0672B62
:1016200009F08260452B09F08460232B19F0886053
:10163000089580E0089580931B0470931D046093C7
:101640001C0480914C048430F9F48093E9008FEFFE
:101650009091E800815095FD06C095ED9A95F1F7BF
:1016600000008111F5CF8091E80085FF0DC050E0AA
:1016700040E063E070E08BE194E00E9446048091DA
:10168000E8008E778093E8000895BC0184E00E9412
:101690001B0B0895BC0183E00E941B0B0895CF93A0
:1016A000DF93EC0180911E018823B1F18091190430
:1016B00087FF32C060E284E08093E9008FEF909171
:1016C000E800815095FD06C095ED9A95F1F7000070
:1016D0008111F5CF8091E80085FF1BC080911E012C
:1016E00070E050E040E0811104C050E040E068E06C
:1016F00070E0CE010E9446048091E8008E778093CE
:10170000E80080E2FE01A1E2B4E001900D928A952A
:10171000E1F7DF91CF91089568E081E0CDCF0197A7
:1017200008F40895EFE9FFE03197F1F700C00000F9
:10173000F6CF80917F0280FF27C0879A31B33F7731
:1017400021B320684FB7F8948CE792E0FC015191E7
:10175000CF0168E021BB000000C057FF31BB550F2F
:10176000000000C000C000C031BB00C06A9591F706
:10177000F2E08F379F0751F74FBF8FE594E0019755
:10178000F1F700C00000089510927D0210927C02D3
:1017900010927E02D2CFCF93DF93EC018091800232
:1017A000609181029C812CE732E040E0911102C0FF
:1017B000409182020E9414070E94990B8C8190E054
:1017C0000196817099278C83DF91CF9108958F9234
:1017D0009F92AF92BF92CF92DF92EF92FF92CF9300
:1017E000DF93EC014C81E42EF12C9701D7010E948C
:1017F0003D349B01AC010E9453344B015C01E0E29B
:10180000F0E0EE19FF09A5E5B0E0AC019B010E94F4
:1018100053346B017C019F01DF010E9435349B0131
:10182000AC010E945E349B01AC01280D391D4A1D9C
:101830005B1DC701B6010E940634922F30E09A3238
:1018400048F563E0969FA001112455954795409572
:101850002CE732E06091810285E5891B0E94140724
:101860000E94990B9C8181E0992319F0903219F420
:101870008FEF8093190180911901890F8C83DF917B
:10188000CF91FF90EF90DF90CF90BF90AF909F905F
:101890008F90089545E550E0BA01621B730B9B01E0
:1018A000AB01440F551F420F531F57FFCECF4F5F61
:1018B0005F4FCBCF10927D0210927C0210927E027D
:1018C00080917A02181674F08091180187FD0AC081
:1018D0002CE732E040918202609181028091800287
:1018E0000E9414070E94990B8091170190917A022F
:1018F000980F90937A0220911801280F20931801D5
:10190000121614F497FD03C0819580931701089572
:101910000F931F93CF93DF93FC0182811FEF80FF12
:1019200011E010927D0210927C0210927E02C4E0BF
:10193000D0E000E080917902800F823024F487FDAE
:101940008F5F811113C0809182028C9FA0018D9FB7
:10195000500D112455954795559547952CE732E044
:1019600060918102809180020E941407010F2197EB
:1019700009F70E94990B113061F480917902882354
:1019800019F0815080937902DF91CF911F910F91CF
:10199000089510927902F8CFCF93DF93EC012CE7F2
:1019A00032E040918202609181028C810E94140792
:1019B0000E94990B9A818C8190FF05C08F5F8C8368
:1019C000DF91CF9108958150FACF90917F0290FFDF
:1019D00008C080937D0260937C0240937E020E9447
:1019E000990B0895A3E0B0E0E8EFFCE00C947434A8
:1019F0008C0180917B0281110AC09E012F5F3F4FB5
:101A00004FEF6FEF0E9414078A8180937B02F801E9
:101A10006481613069F080917B0240E0662361F06F
:101A200040E0623011F440917B0280E060E004C04D
:101A300060917B0240E080E00E94E50CF801848127
:101A400090E0019663E070E00E94F2338483239675
:101A5000E4E00C949034A3E0B0E0E1E3FDE00C940A
:101A6000763490917F0290FF0AC09E012F5F3F4F16
:101A70000E9414074B8169818A810E94E50C23969C
:101A8000E2E00C949234CF93DF93EC01EFE7F2E0C5
:101A9000438162818C810E942B0D8C818F5F8C83AE
:101AA000DF91CF910895CF93DF93EC01EC81F0E0CB
:101AB000E252FC4F4491EFE7F2E0628181810E94A3
:101AC0002B0D8C818F5F8C83DF91CF9108950F93C5
:101AD0001F93CF93DF9305E513E0CFEAD1E0CE016A
:101AE0000E94E034F80181938F012196C33DF1E01B
:101AF000DF07A9F7CCEAD5E0FE0185919491009724
:101B000011F0FC0109952C96F6E0CC33DF07A1F724
:101B1000DF91CF911F910F9108950F931F93CF9352
:101B2000DF93843030F5673020F5473010F5C42F4F
:101B3000D0E0CC0FDD1F2EE0629FC00DD11D11241F
:101B400032E6839FC00DD11D1124CE0187960E94DD
:101B5000E034082F10E0102F0027CE0188960E9455
:101B6000E0349801282BC901DF91CF911F910F918B
:101B7000089590E080E0F8CF462F20913203309115
:101B80003303232B99F4703F39F4603F79F480914B
:101B90003003909131030895843040F4773030F46D
:101BA000673020F4672F0E948D0D089590E080E04B
:101BB0000895CF92DF92FF920F931F93CF93DF93FD
:101BC0006C0100914D0480914502082BC7E0D0E0E4
:101BD00010E0FC2EC8010C2E02C0959587950A9442
:101BE000E2F780FD0CC02197A0F7F12C8F2DDF913B
:101BF000CF911F910F91FF90DF90CF900895B60184
:101C00008C2F0E94BC0D0E940608019761F3EECF55
:101C1000CF93DF93EC010E94D90DBE010E94BC0D51
:101C20000E940608DF91CF910895CF93DF93EC01D6
:101C30004B815C81698188810E940D06811110C0F1
:101C40008E819F81009739F00E9406080E94CF0A7A
:101C5000DF91CF910895888199810E94080EF6CF77
:101C600080E0F6CFA5E0B0E0E8E3FEE00C94753448
:101C700049835A8389819A81662399F0222389F0C6
:101C80000E94D90D182F682F89819A810E94980A85
:101C900069817A81812F0E94BC0D2596E3E00C9426
:101CA00091340E94640A182FF3CFFC01262F8681FD
:101CB0009781009739F440815181628173818481D9
:101CC0000E94320E089583E290E00E94E034811178
:101CD00011C084E290E00E94E034843559F485E23A
:101CE00090E00E94E03491E08B3309F090E0892F7E
:101CF0008170089580E0FCCFCF9384E090E00E9453
:101D0000E034C82F82E290E00E94E034982F8C2FBC
:101D1000CF910895DB01FC01329625913491421751
:101D2000530758F0FC01349665917491A901CD01D7
:101D30000E94C03490E080E008958FEF9FEF0895F7
:101D40000F931F93CF93DF9305E513E0CFEAD1E024
:101D5000CE010E94E034F80161918F01681719F0FB
:101D6000CE010E94F4342196C33DF1E0DF0781F7F4
:101D7000DF91CF911F910F910895DA019C012E5FA1
:101D80003F4FF90145915491F90125913491A217E2
:101D9000B30758F0FC013496859194910E94C034A9
:101DA0000E94A00E90E080E008958FEF9FEF0895CD
:101DB000CF93DF93CBE4D2E060E0CE010E94F43415
:101DC0002196C11584E0D807B9F7DF91CF91089526
:101DD0001F93CF93DF93122F8430E0F46730D0F459
:101DE0004730C0F4C42FD0E0CC0FDD1F9EE0699FC8
:101DF000C00DD11D112492E6899FC00DD11D112463
:101E0000632FCE0187960E94F434612FCE0188960D
:101E10000E94F434DF91CF911F910895CF93C82F82
:101E200061E06827619583E290E00E94F4346FEFEF
:101E3000C11164E584E290E00E94F4346FEFC111B7
:101E40006BE385E290E00E94F434CF910895CF9344
:101E5000C92F682F84E090E00E94F4346C2F82E256
:101E600090E00E94F434CF9108959B01883070F483
:101E70009AE0899FB00111246D527E4F4AE050E0F4
:101E8000C9010E94D03490E080E008958FEF9FEF69
:101E90000895AAE0B0E0EFE4FFE00C9476349C01F2
:101EA00037552F3F310509F068F4BE016F5F7F4F52
:101EB0000E94350F892B31F489859A852A96E2E0B4
:101EC0000C94923480916D0390916E03F7CFAAE049
:101ED000B0E0EDE6FFE00C947034E6E0F3E088E279
:101EE000DF011D928A95E9F7E1EEF3E08CE1DF0175
:101EF0001D928A95E9F786E0C82E83E0D82E7F01EF
:101F000003E212E0F701D182C0824AE050E0B8015A
:101F1000CE0101960E94D03488E0FE013196D601B0
:101F200001900D928A95E1F789859A85D7011396DC
:101F30009C938E931297BAE0CB0ED11CE7E0EE0E85
:101F4000F11C065F1F4F0B34F2E01F07D9F62A96EB
:101F5000E8E00C948C34CF92DF92EF92FF926B0109
:101F60007C010E940507B701A60188E090E00E946D
:101F70000635FF90EF90DF90CF900895A3E0B0E09A
:101F8000E4ECFFE00C947234082FF62E142FE22EAE
:101F900090917F0290FF29C0E92FE695AE2FB0E027
:101FA000AA59BE4F8C91809377029E7F923009F59B
:101FB0009E012F5F3F4F802F0E9414074B81698144
:101FC0008A810E94E50C00938002F09281021093B6
:101FD0008202EE2051F060917F0270918002809128
:101FE0008102909182020E94AB0F2396E6E00C944E
:101FF0008E34823019F410918202E5CF863019F4C4
:1020000000918002E0CF8930D9F38931E1F6E951BE
:10201000E695F0E0E752FC4FE4912CE732E0802FA8
:102020000E9414070E94990BCECFEFE7F2E04381A4
:1020300028E0421B08F440E021E0628181810E9497
:10204000BE0F0895EFE7F2E0438128E0420F08F465
:102050004FEF21E0628181810E94BE0F0895EFE77A
:10206000F2E0628128E0621B08F460E021E0438135
:1020700081810E94BE0F0895EFE7F2E0628128E0BF
:10208000620F08F46FEF21E0438181810E94BE0F4F
:102090000895EFE7F2E0818121E043816281885079
:1020A0000E94BE0F0895EFE7F2E0818121E04381B5
:1020B0006281885F0E94BE0F089580918302882309
:1020C00019F081508093830260917F0270918002A9
:1020D00080918102909182020E94AB0F08958091BD
:1020E0008302833018F48F5F8093830260917F02B4
:1020F0007091800280918102909182020E94AB0FC8
:10210000089590917F0290FF2CC0917081112AC098
:10211000926090937F02662351F060917F027091EC
:10212000800280918102909182020E94AB0F6091A7
:102130007F02669570E04BE050E08CE091E00E94F9
:10214000A634892BB1F01092780281E0809374025A
:1021500020E04091820260918102809180020E9481
:10216000BE0F0895853210F09864D3CF880F982B56
:10217000D0CF81E0809378020E94C80590937202CC
:1021800080937102E2CF80917F028695815009F49D
:1021900084E261E00E948110089580917F0286951B
:1021A0008F5F853208F081E061E00E948110089520
:1021B00090917F0290FF08C09695981728F0961787
:1021C00018F40E94CD10089561E00E9481100895D6
:1021D000EFE7F2E083E0808311828FEF82838383D5
:1021E000148260817181828193810E94AB0F089576
:1021F000A7E0B0E0EEEFF0E10C946D348E010F5FDC
:102200001F4F87E0F80111928A95E9F788E5C82EFB
:1022100081E0D82EF12CE12CAA24A394B12CF60154
:1022200081916F018F3F09F443C0F894E82FE29544
:10223000EF70F0E021A18F70A50102C0440F551F7F
:102240008A95E2F7CA01922F982B91A392A18095CB
:10225000892382A3789400C0EFE5F1E0912C31E06E
:1022600021912F3F09F465C0A22FA295AF70B0E075
:1022700090968C9190E02F7002C0959587952A9545
:10228000E2F780FD56C0832F982A330F51E0E636DF
:10229000F50731F7F601319780818F3F11F00E94E9
:1022A000AC0780EA8A95F1F7F801EE0DFF1D9082E8
:1022B000EFEFEE1AFE0AF7E0EF16F10409F0AFCFE8
:1022C00047E050E0B80189E492E00E94B334892BE2
:1022D00091F187E0F801A9E4B2E001900D928A95AE
:1022E000E1F781E0809348020E94C805909347027D
:1022F0008093460280914602909147020E94B90560
:102300000597E8F047E050E069E472E08AE692E081
:102310000E94B334892BC1F087E0E9E4F2E0AAE639
:10232000B2E001900D928A95E1F781E010924802A7
:1023300007C080E0A9CF809148028111DBCF80E007
:102340002796EBE00C94893480E0F0CF8091340341
:1023500090914E04892B80939C01809144028823A4
:1023600019F18091570390915803892B29F00E940D
:10237000C10981110E94870980919C0190914402BA
:10238000892B80939C0180911E018823E1F180912B
:10239000190487FF38C08EE1EEE9F1E090E081504A
:1023A000A0F591110E94870940E250E062E272E0DC
:1023B0008CE991E00E94B334892B21F180E2ECE9B1
:1023C000F1E0A2E2B2E001900D928A95E1F7E0918E
:1023D0001004F09111043097A9F080911E01882318
:1023E00059F08091190487FF07C080919C01809368
:1023F0009D0186E080939C010280F381E02D8CE9B1
:1024000091E00995089586E0C7CF2191222339F202
:102410009F5FC5CFCF93DF93EC01EA85FB853097B3
:1024200019F06C857D8509958B810E94A6098C81A8
:102430000E94AD090E94A61186E0FE0111928A95C4
:10244000E9F7DF91CF910895CF93DF93EC018D8170
:1024500081FD15C082608D8380914E049B81892B04
:1024600080934E048C810E94B4090E94A611E885D5
:10247000F985309721F06C857D85CE010995109204
:102480000D0410920C048D8180FD03C0CE010E94CA
:102490000A12DF91CF91089580911C01877F80936C
:1024A0001C0182E00E94A60980911C0184FF06C0E5
:1024B0008F7E80931C0182E00E94B40980911C01F0
:1024C00085FF06C08F7D80931C0180E20E94B409C5
:1024D0000E94A611089590E080E00E94EA0590E035
:1024E00080E00E94D40510924E040E94A611089527
:1024F00080934D040E946B12089580914D04982F93
:102500009670963021F488600E9478120895877F33
:10251000FBCF21E030E001C0220F8A95EAF7209539
:1025200080914D0482230E94781208959091210297
:102530008095892380932102282F277091F4282FDA
:10254000082E000C330B9217130659F090911A04C1
:1025500092FF07C08595859585950E9489120E94F6
:10256000BA09089590911A0492FB222720F928179E
:1025700069F080FB92F990931A048091190490916C
:102580001A040E94270F82E00E949612089521E00B
:1025900030E001C0220F8A95EAF780914D04822B2A
:1025A0000E947812089590911A0492FF10C098E04A
:1025B000899F90011124622B609321020E94C7120F
:1025C0000E94C8059093200280931F0208950E94E4
:1025D000C7120895809345020E946B1208951092CD
:1025E000340380911E01EEE9F1E0882361F08091CF
:1025F000190487FF08C08EE1DF011D928A95E9F773
:102600000E946B12089586E0F7CFAAE2B0E0EBE0FB
:10261000F3E10C94753484E494E02091F100DC0142
:102620002D93CD01B4E08C349B07B9F7809145041C
:10263000833009F472C0B8F4813009F449C08230A3
:1026400009F4B3C08091E80083FF96C280914404EE
:10265000909145049A3008F08FC2E92FF0E0EE5CCB
:10266000FA4C0C9428348A3009F48EC08B3009F46B
:1026700071C0893039F780914404813219F7809113
:10268000480490914904009711F00297D9F680917F
:10269000E800877F8093E8008091E80082FF38C0DF
:1026A0009091F3008091F200029731F48091F10053
:1026B000813011F0863021F48091F1008093200464
:1026C0008091E8008B778093E8000E949804BACF4D
:1026D00080914404813A09F0B5CF8091E800877F6A
:1026E0008093E8008091480490914904892B61F41B
:1026F00060E281E294E070E00E9444058091E8008D
:102700008B778093E8009ECF60E090E080E0F3CF8D
:1027100080914C048111C0CF95CF80914404813ABF
:1027200009F090CF8091480490914904892B09F0D9
:1027300089CF8091E800877F8093E8008091E8004E
:1027400080FFFCCF80911E018093F1008091E80012
:102750008E77B9CF80914404813209F073CF809194
:10276000480490914904892B09F06CCF8091E800CE
:10277000877F8093E8000E949804809146048093AC
:102780001E010E94EF125ECF80914404813209F055
:1027900059CF8091E800877F8093E8000E949804D9
:1027A0008091470480931F044DCF80914404813A67
:1027B00009F048CF8091E800877F8093E8008091FE
:1027C000E80080FFFCCF80911F04BECF803899F0D5
:1027D000823809F0D1C1809148048F70873008F0A9
:1027E000CBC18093E9008091EB0085FB882780F9BD
:1027F0001092E90006C08091410490914204911129
:1028000082609091E800977F9093E8008093F100B8
:102810001092F1008091E8008E77AAC1882309F414
:1028200098C1823009F0A8C18091460481119BC1F2
:10283000809148048F702FEF280F263008F09CC13C
:102840008093E9002091EB0020FF8DC1933031F49B
:102850008091EB0080628093EB0085C19091EB004A
:1028600090619093EB0021E030E001C0220F8A9547
:10287000EAF72093EA001092EA008091EB0088606A
:10288000EACF811179C1109146041F778091E3004E
:102890008078812B8093E3008091E800877F80938C
:1028A000E8000E9498048091E80080FFFCCF8091AE
:1028B000E30080688093E30082E0111183E080935D
:1028C0004C045AC18058823008F056C12091460409
:1028D000309147042C3DE3E03E07A1F583E08A8375
:1028E0008AE289834FB7F894DE01139620E03EE038
:1028F00051E2E32FF0E050935700E49120FF03C032
:10290000E295EF703F5FEF708E2F90E0EA30C0F0FD
:10291000C7968D939D932F5F243159F74FBF8091B8
:10292000E800877F8093E8006AE270E0CE010196BC
:102930000E9444058091E8008B778093E8001CC1D9
:10294000C096E7CF8091480490914904432F5527C2
:102950004330510509F44AC078F54130510509F476
:1029600085C08BE590E0E2E3F6E04230510509F0E6
:1029700003C12091E800277F2093E80020914A04BA
:1029800030914B048217930708F49C0140E0211515
:10299000310509F070C041116EC08091E80082FDE0
:1029A000C9CF80914C04882329F2853019F2809197
:1029B000E80083FFF2CFBECF4132510509F447C092
:1029C0004232510509F0D8C08330910508F0D4C0D7
:1029D000FC01EE0FFF1FE257FE4F0190F081E02D4A
:1029E00085579E4FDC018C9190E01DC0332721302C
:1029F0003105E9F02115310579F022303105F9F082
:102A00002330310509F0B8C0EFE9F6E0E4918E2FEC
:102A100090E0EFE9F6E007C0E9EFF6E0E4918E2FF1
:102A200090E0E9EFF6E0009709F4A6C0A2CFEDED43
:102A3000F6E0E4918E2F90E0EDEDF6E0F4CFEDEBD3
:102A4000F6E0E4918E2F90E0EDEBF6E0ECCF8330F2
:102A5000910508F091C0880F991FFC01EC56FE4FBC
:102A60000190F081E02D89E090E083CF82E190E059
:102A7000EDE8F6E07ECF80914C04882309F45ACF2C
:102A8000853009F457CF8091E80083FD53CF8091C2
:102A9000E80082FD82CF8091E80080FF78CF90919E
:102AA000F3008091F2002115310519F0883091056D
:102AB00050F041E0089709F040E08091E8008E77FF
:102AC0008093E80064CF44914093F1003196215007
:102AD00031090196E8CF803809F04EC08091E800B6
:102AE000877F8093E800809143048093F10092CE29
:102AF000811142C0109146041230F0F58091E80037
:102B0000877F8093E800109343040E949804112368
:102B100011F084E005C08091E30087FDFACF81E0E9
:102B200080934C0442E061EC81E00E94B70442E2F1
:102B300061EC84E00E94B70442E261EC82E00E9412
:102B4000B70442E260EC83E00E94B70480914C0439
:102B500013C080914604813079F481E0933009F00C
:102B600080E0809342041092E9008091E800877F22
:102B70008093E8000E9498048091E80083FF0AC0D7
:102B80008091E800877F8093E8008091EB0080626D
:102B90008093EB00AA96E3E00C949134E5E5F3E032
:102BA000128E138E8FEA90E09183808385E0848F6C
:102BB00028E833E13383228328EC30E0378B268BFF
:102BC000318F208F158E178E168E20E530E031A3C1
:102BD00020A382A30E94A00E0E94EF1210921A045A
:102BE00010921904EAE1F4E080818460808380918E
:102BF000190490911A040E94270F0E94670D0895EE
:102C0000A4E1B0E0E6E0F6E10C946A3480902E0393
:102C100090902F0381E090E090932F0380932E03F8
:102C20008EEDA82E84E0B82E10E000E06501F12CB6
:102C30001AC021E030E0023011051CF4F3012591A7
:102C400034914E2D6F2D802F0E94E80E82E0680E89
:102C5000711CE394E7E0EE12ECCFF394FEE0CF0EAC
:102C6000D11CFE1619F03601E12CE3CF0F5F1F4F88
:102C700082E6A80EB11C04301105C1F60E94CE15E3
:102C80001A8219821C821B821E821D8218861F8254
:102C900088EC90E09A87898703ED11E04AE050E0E4
:102CA000B801CE0101960E941835065F1F4F03320E
:102CB000E2E01E0799F78E01055F1F4F8AE0F801D9
:102CC00011928A95E9F74AE050E063E272E0C801A8
:102CD0000E9418354AE050E06DE272E0C8010E949F
:102CE00018354AE050E067E372E0C8010E941835E9
:102CF0004AE050E061E472E0C8010E941835909209
:102D00002F0380922E036496EEE00C94863480E0CC
:102D10000E940E0F60E086E290E00E94F4340E9470
:102D200000160E94D80E81E00E940E0F089568EEF2
:102D30007EEF90E080E00E94123560E082E090E05B
:102D40000E94F43460E083E090E00E94F43410923A
:102D5000450260E084E090E00E94F43464E082E2A6
:102D600090E00E94F43460E085E090E00E94F4344A
:102D700060E086E090E00E94F4346FEF87E090E03E
:102D80000E94F43440E050E0BA0188E090E00E94F4
:102D9000063560E08DE090E00E94F43440E050E0C1
:102DA000BA0188E190E00E94063560E087E190E09A
:102DB0000E94F43440E050E0BA018CE190E00E94BF
:102DC000063570E060E080E290E00E94123540E05D
:102DD00050E0BA0188E190E00E94063580E00E9450
:102DE0000E0F0E94871640E050E0BA018FE090E09D
:102DF0000E94063540E050E0BA0183E190E00E9475
:102E000006350895CF92DF92EF92FF928FEF9FEFFA
:102E10004430510508F46AC0FB01C080D180E280D3
:102E2000F3800E94EF1280911904C0FA80F9B70173
:102E3000A601769567955795479540FB81F9B701AF
:102E4000A60122E076956795579547952A95D1F783
:102E500040FB82F9B701A60133E076956795579557
:102E600047953A95D1F740FB83F9B701A601E4E015
:102E70007695679557954795EA95D1F740FB84F984
:102E8000B701A601F5E07695679557954795FA95B0
:102E9000D1F740FB85F9B701A601A6E076956795C5
:102EA00057954795AA95D1F740FB86F9B701A6013A
:102EB000B7E07695679557954795BA95D1F740FB5A
:102EC00087F98093190480911A04D0FA80F9D1FA15
:102ED000CC24C0F8C0FA81F980931A0480911904B7
:102EE00090911A040E94270F90E080E0FF90EF90ED
:102EF000DF90CF9008950E94EF122FEF84E39CE0C3
:102F0000215080409040E1F700C0000088E19AE045
:102F10000FB6F894A895809360000FBE9093600060
:102F2000FFCF882321F00E94A6090E94A6110895D0
:102F3000882339F090914E04982B90934E040E9470
:102F4000A6110895882321F00E94AD090E94A611C0
:102F50000895882321F00E94B4090E94A6110895C3
:102F6000882309F44DC0823879F40E94000681FF5D
:102F700047C089E30E94060A0E94A61189E30E94C5
:102F8000DB090E94A6110895833859F40E940006B7
:102F900080FF36C083E50E94060A0E94A61183E5E1
:102FA000EECF843859F40E94000682FF29C087E4DE
:102FB0000E94060A0E94A61187E4E1CF9CEF980FB9
:102FC000913AE8F290E2980F983050F4877091E0CF
:102FD00001C0990F8A95EAF7892F0E94AD09D1CFD8
:102FE0009BE5980F933028F490E080E00E94EA057A
:102FF0000895885A873120F490E080E00E94D4053B
:103000000895CF93DF93EC010E94B017CE010E9488
:10301000EA0A9E01205E31092830310510F0CD2BDF
:1030200029F40E94A217DF91CF9108950E94911771
:10303000FACFCF93C82F8823C9F08238C9F40E94F1
:10304000000681FD13C089E30E94060A0E94A611B2
:103050002FEF87EE93E0215080409040E1F700C0D1
:10306000000089E30E94DB090E94A611CF91089518
:103070008338A1F40E94000680FDF8CF83E50E940A
:10308000060A0E94A6112FEF81EE94E021508040A5
:103090009040E1F700C0000083E5E4CF8438A1F45C
:1030A0000E94000682FDE2CF87E40E94060A0E9489
:1030B000A6112FEF81EE94E0215080409040E1F77F
:1030C00000C0000087E4CECF8CEF8C0F813A88F5EA
:1030D00080911E01882301F18091190487FF1CC093
:1030E000EC2FE695E695E695F0E0E456FE4F8281FA
:1030F00090E04C2F477021E030E002C0220F331FD8
:103100004A95E2F782239323892B79F08C2F0E9432
:10311000DB090E94A61109C0EEE9F1E08191C81710
:10312000A9F321E0E43AF207C9F78C2F0E94060ABE
:103130009BCF80E28C0F883048F4C77081E001C0DB
:10314000880FCA95EAF70E94B4098ECFEBE5EC0F21
:10315000E33040F4F0E0E95DFE4F808190E00E94B2
:10316000EA0584CFC85AC73108F080CFEC2FF0E0D1
:10317000EE0FFF1FE65DFE4F808191810E94D40516
:1031800075CF1F93CF93DF93182FC0917503D09104
:103190007603893321F0C0917303D0917403812F9A
:1031A0000E941918209739F4812F0E94B017DF91DF
:1031B000CF911F9108958FE99FE00197F1F700C02B
:1031C00000002197EFCFB0E0A0E0E9EEF8E10C9429
:1031D0006E34EC018AE0A82E2881222309F48FC0E6
:1031E0002130C9F599818A81913021F422960E947B
:1031F000C11805C0923029F422960E941918219610
:10320000EBCF933021F422960E94B017F8CF943080
:1032100011F02196F4CF229630E020E0AE014F5F0E
:103220005F4F8053990B8A30910550F0215031093E
:1032300030F38FE99FE00197F1F700C00000F6CF6F
:10324000A29EB001A39E700D11249C01260F371F72
:103250008981EA01E3CFE22FF0E0E35DF84FB4901B
:10326000822F86958695869590E0FC01E35EF84F67
:10327000E4902770F12C022E02C0F594E7940A9492
:10328000E2F731E0E322FF24FC01E35FF84FC49052
:10329000D12C022E02C0D594C7940A94E2F731E0F3
:1032A000C322DD24FC01E350F94F049110E002C079
:1032B000159507952A95E2F701701127E114F1049D
:1032C00019F081EE0E941918C114D10419F086EE8C
:1032D0000E9419188B2D0E94C118C114D10419F035
:1032E00086EE0E94B017E114F10419F081EE0E94FD
:1032F000B0170115110509F482CF8CE278CFCDB754
:10330000DEB7EAE00C948A34B0E0A0E0EAE8F9E144
:103310000C946E347C015B01C42FD22FFC0182819E
:103320008823A9F040930B040E94C80590930A04D7
:1033300080930904C77081E001C0880FCA95EAF73D
:103340000E94A917CDB7DEB7EAE00C948A34109139
:103350000B04141338C08091090490910A040E9450
:10336000B9056C01B701C5010E94490FC816D906FD
:1033700050F5C0E2CD0F1D17C1F080E2810F8830FB
:1033800048F4177081E0012E01C0880F0A94EAF713
:103390000E94A217C83048F481E09D2F977001C0A9
:1033A000880F9A95EAF70E94A917802F0E94C118EA
:1033B000C83040F6D77081E001C0880FDA95EAF78F
:1033C0000E94A217BFCFC77081E001C0880FCA95C5
:1033D000EAF7F6CFCF93DF93EC010E94EA0A9E0151
:1033E000205E31092830310510F0209741F40E9409
:1033F000A9178C2F0E941918DF91CF9108950E9470
:103400009817F7CF662329F020914E04226020936D
:103410004E049C013056211540E2340720F0305E06
:103420002115304108F499270E94EA190895B0E067
:10343000A0E0EDE1FAE10C9471347C018B01D42E13
:1034400080911C0182FF8CC0C0917B03D0917C03D2
:10345000CE15DF0521F0E114F10409F081C080915F
:103460001C018B7F80931C0181FD73C080917903C7
:1034700090917A03A801481B590B81E020911A0111
:1034800030911B014217530708F480E08170F82E39
:1034900080911C01F0FA81F980931C01FE0183E008
:1034A000F695E7958A95E1F7EE71FF27EB5CFC4F07
:1034B00020813181AE014F70552781E090E002C03C
:1034C000880F991F4A95E2F7FF2009F444C0822B28
:1034D000932B918380838091340381FF08C0809176
:1034E0001C01806180931C0182E00E94AD098091E3
:1034F000340385FF08C080911C01806280931C0109
:1035000080E20E94AD096F2DCE010E94021ADD20DB
:1035100031F08091700385FF02C086FF3BC080912F
:103520007303909174030E948F0B80917B039091A1
:103530007C039C013056211540E2340720F0305EB8
:103540002115304108F499270E9401180E944C125D
:103550001DC081E09BCF8095909582239323B9CFA6
:10356000C701992797013056211540E2340728F00A
:10357000305E2115304108F0C7010E94011880918A
:103580007B0390917C038E159F0501F310937A03C2
:1035900000937903CDB7DEB7E7E00C948D34A4E057
:1035A000B0E0E5EDFAE10C946D347C01DC0113969A
:1035B0004D915C91149711966C9111978C910E948A
:1035C0000D068111EEC061E0C7010E94550E8C010D
:1035D000F70182818823E1F080910C0490910D0421
:1035E0000097B1F00817190799F0FEE08F9FC0010E
:1035F0001124FC01E556FD4F2081246020838A566A
:103600009D4FDC010D931C930E94241210924E04D6
:10361000F7018281882311F40C94582398012251D8
:103620003F452031310508F0B4C78FEF93E00E9489
:10363000E0348111A6C06EEED62ED00E0BE412E05F
:10364000D11036C019821A821B821C8299249A9446
:1036500068012FEFC21AD20AC8010E94E0348983A0
:103660001A82882309F48DC0813009F07FC0580187
:1036700032E0A30EB11CC6010E94E034C82E8A833A
:10368000882309F47EC0C5010E94E034D82E8FEF54
:103690008C0D8330D8F4580143E0A40EB11CDB82BA
:1036A000DD2021F0CE0101960E94E3188501D0CFE4
:1036B0000115F4E01F0709F464C0C8010E94E0345A
:1036C000811101C0DA940F5F1F4FBACF8BEF8C0DC1
:1036D000833030F5C8010396DB825C01DD2031F3D5
:1036E000580154E0A50EB11C0E94E0348C8388235D
:1036F000E9F28B819C818130AFEF9A0710F0982F0F
:103700008827B6E0CB1631F0E7E0CE1631F00E9404
:10371000452ACCCF0E941F2AC9CF0E94A629C6CF16
:10372000F4E0CF12C3CF580124E0A20EB11CC801AF
:1037300003960E94E034DD2021F1882311F18150AD
:10374000990B989E9001999E300D11244D2D41505A
:10375000550BCA01820F931F019708F4A7CFAFE959
:10376000BFE01197F1F700C00000F6CFCE0101963F
:103770000E94E31856019ACF81E00E94C7120E946E
:103780007D1280912102877061F0D70112968C9191
:10379000882339F080911A0482FF03C082E00E94DE
:1037A00096122496EBE00C94893481E00E948912F1
:1037B000E6CF82E0E2CF823009F02CC78091900200
:1037C00090919102892B09F425C72EE02C9DC00110
:1037D0002D9D900D1124FC01E556FD4F20812E7F7B
:1037E00020838A569D4F0E94241214C72FEFC216C1
:1037F000D10409F008F40EC78091700380FF39C02E
:103800000E94C8056C01D70112968C91882309F497
:1038100068C080911C0182FF08C02DE532E040E0C5
:10382000B60190E080E00E94171A0B31BCE51B073F
:1038300009F449C00C31ECE51E0709F44AC0909127
:103840001C01892F8E7F90FF81600A31FCE51F07E4
:1038500009F442C0C8019056811520E2920728F071
:10386000905E8115904108F04AC010927C0310923E
:103870007B03033FBCE51B0709F494C108F036C184
:10388000083DFCE51F0709F487C1093D2CE5120737
:1038900009F4A0C1073D3CE5130709F033C106E276
:1038A00021EE41EE67ED7CE5C7010E94841969CFE6
:1038B000902F812FF8C6F601858181FF9DCFC6012B
:1038C0000E940A1299CF80911C01816080931C0193
:1038D000C1CF80911C018E7F80931C010E944C12ED
:1038E000B9CF80911C018F7E013E110531F0053E5C
:1038F0001105C9F480911C018F7D80931C0180917A
:103900001C0180FFB6CFD70112968C9108321105A9
:1039100028F50E31110508F072C00430110580F54C
:103920008111A3CFA6CFC8019056811540E294071C
:1039300020F0905E8115904110F780911C0182FF6C
:1039400098CF8091720381FD94CF2DE532E040E065
:10395000B60190E080E00E94171A8BCF0933110561
:1039600058F40D32110518F40B321105C9F6909177
:10397000700392FDD5CF08C004361105C1F3D0CF36
:103980009091700394FDCCCF882309F4A8C0809156
:10399000440290913403892B8D7FB1F110927C0306
:1039A00010927B038091700381FD2EC0F80143E0EB
:1039B000F695E7954A95E1F7EE71FF27EB5CFC4F32
:1039C00098012F70332781E090E002C0880F991F83
:1039D0002A95E2F780959095208131818223932367
:1039E0009183808360E0C8010E94021A80914402A2
:1039F0008D7F0E94920982E00E949612C2CE909121
:103A0000700393FD8DCFC0CF88E0F701ADE5B2E044
:103A100001900D928A95E1F710925F021092610277
:103A20001092600280917B0390917C030817190724
:103A3000D1F52091700325FF36C030911C0131FF74
:103A400002C026FF30C02091790330917A035601DD
:103A5000A21AB30AB7010E94490FA816B90618F5B1
:103A60008091340381FF08C080911C0180618093A4
:103A70001C0182E00E94AD098091340385FF08C0DB
:103A800080911C01806280931C0180E20E94AD093C
:103A900060911C016695617080917B0390917C031D
:103AA0000E94021A6ECE8091440290913403982BAA
:103AB00020911C0191FB21F920931C018D7F0E9414
:103AC000920910937C0300937B03D0927A03C092F7
:103AD000790380911C01846080931C018CCF970135
:103AE00040E0B601C8010E94171A4BCE053F4CE5D5
:103AF000140709F463C008F45BC0063F8CE518079F
:103B000009F462C0D70112963C91332309F4DCC555
:103B100010920B040330BDE51B0708F061C00A3F9B
:103B2000ECE51E0730F4C80182509C45449708F02C
:103B300062C00E947C0E90931A0480931904023193
:103B40005CE5150709F47FC108F0CFC009309CE59A
:103B5000190709F456C108F099C00530BCE51B07E8
:103B600009F443C108F080C00330FCE51F0709F4E5
:103B700034C108F036C180911904816002303CE5FF
:103B8000130709F4AFC08091190490911A040E94A0
:103B9000270F0E94EF12F5CD07E225EE45EE68ED06
:103BA0007CE582CE06E221EE40EE63EF7CE57CCE42
:103BB00007E225EE44EE64EF7CE576CE06E221EEE8
:103BC00042EE65EF7CE570CE07E225EE46EE66EF4D
:103BD0007CE56ACE08E221E045EE69ED7CE564CE45
:103BE000053AFDE51F0709F4A4CFC0F501364DE500
:103BF000140709F49ECF06315CE5150709F023C2CE
:103C000080913403982F9A7A20916F0320FF04C08B
:103C1000482F447409F090E021FF04C0482F4171FF
:103C200009F090E022FF04C0482F487809F090E0A6
:103C300023FF03C0827209F090E0332309F42DC101
:103C400081E0911101C080E08093BC0189E2911173
:103C500085E30E94060A0E94A61193CDC8018D5AE1
:103C60009D45039740F665CF809119048062073027
:103C70004CE51407B9F180911904806108305CE5C6
:103C8000150780F18091190480642CC00D308CE5FB
:103C9000180709F4C0C090F4809119048E7F0B308E
:103CA000ACE51A07F9F0809119048C600C30BCE582
:103CB0001B07C0F0809119048D7F14C00F30ECE514
:103CC0001E0709F4B8C008F4AAC000312CE5120799
:103CD00009F4B5C0809119048F7B01313CE51307CD
:103CE00009F051CF809319044ECF0F3F4CE51407D4
:103CF00009F4B3C0A8F50A3F8CE5180709F479C0A8
:103D0000C0F40431ACE51A0709F4B5C008F4A1C049
:103D10000531ECE51E0709F036CF8091190482FBCE
:103D2000992790F921E0922790FB82F990FB83F983
:103D3000D9CF0C3FFCE51F0709F475C008F45DC03E
:103D40000D3F3CE5130709F472C080911A048360AB
:103D50000E3F4CE5140709F016CF80931A0413CFD9
:103D600001365DE5150709F491C090F401309DE539
:103D7000190709F489C008F474C060E00230BDE599
:103D80001B0709F000CF8EE090E00E94F434FBCED8
:103D90000D3AEDE51E07E9F060F490911904892FC2
:103DA0008E7F90FF8160053A2DE5120709F49ACFC6
:103DB000EACE0E3A3DE5130751F10F3A4DE51407EF
:103DC00009F0E1CE90911A04892F877F93FF8860D4
:103DD000C4CF80911A048860C0CF8091190482609A
:103DE00081CF8091190484607DCF8091190488600F
:103DF00079CF80911A048160B0CF80911A048260DB
:103E0000ACCF0E94EF128091190480686BCF809133
:103E10001A04877FA2CF809119048B7F63CF809192
:103E20001904877F5FCF80911A048E7F96CF80918F
:103E30001A048D7F92CF809119048F7E53CF809189
:103E400019048F7D4FCF0E94EF12809119048F7754
:103E500049CF80911904837F45CF80911A048C7FCC
:103E60007CCF80911A04982F909591708E7F892B2A
:103E700090FB81F972CF0E94EF1290911904892F63
:103E800097FB87F980582ECF61E07DCF9091190480
:103E9000892F8F7E94FF806125CF8091BC01811195
:103EA00004C089E20E94DB09D6CE85E3FBCF043C47
:103EB0004CE5140709F494C0053C5CE5150709F0CE
:103EC00025C449E450E163E570E114C0093C9CE578
:103ED000190709F494C088F4073CBCE51B0709F4F2
:103EE00089C04CE350E16FE270E1083CECE51E074D
:103EF00009F00CC40E94FF0644CC0A3CFCE51F07F5
:103F000009F482C04DE550E16FE670E10B3C2CE511
:103F1000120781F3FBC3013D3CE5130709F487C099
:103F2000B0F40E3C5CE5150709F47BC008F476C0DC
:103F30000F3C9CE5190709F477C06EE089E0003D6D
:103F4000ACE51A0709F0E2C30E94D8101ACC043D70
:103F5000BCE51B0709F471C078F4023DFCE51F07BE
:103F600009F468C061E088E1033D2CE5120709F01F
:103F7000CDC30E94811005CC053D3CE5130709F433
:103F80005FC00D35100709F4FCCBC0C380917F02E0
:103F900080FF1BC08E7F80937F0260917F027091B3
:103FA000800280918102909182020E94AB0F109258
:103FB00078025FEF80E792E0515080409040E1F757
:103FC00000C000000E94990BDCCB816080937F02CF
:103FD00061E08695CECF43EC50E16DEC70E18ACF85
:103FE0004DEC50E163EC70E185CF43E550E169E4CD
:103FF00070E180CF4FE250E16CE370E17BCF45E1AF
:1040000050E162E270E176CF42E250E165E170E1B9
:1040100071CF4FE650E16DE570E16CCF61E081E07A
:10402000A8CF65E082E090CF68E086E08DCF64E1C4
:104030008FE08ACF67E185E187CF62E289E184CFB3
:1040400061E083E296CF0A35ADE51A0771F158F4C5
:104050000115ECE51E0791F00E3D1C4509F056C315
:104060000E94971609C00C352DE51207A1F0F8F053
:10407000073A1D4509F04AC30E947B170E94EF12C0
:104080005FEF84E39CE0515080409040E1F700C036
:1040900000000E94A80580911A0482FB882780F9FD
:1040A00091E089270E94B21231C381E0FBCF80E00A
:1040B000F9CF828100811181882369F0C8010E94B3
:1040C000D90DD82E682FC8010E94980AB8018D2DED
:1040D0000E94BC0D21C3C8010E94640AD82EF6CFED
:1040E000202F2F70B22E802F807F19F0B29490EF86
:1040F000B922CC20A9F0BB2059F080E2810F883092
:1041000010F0111107C08B2D0E94B4090E94A61156
:10411000812F5AC080914E04B82AB0924E04F6CF37
:10412000812F0E94B017BB2009F450C080E2810F9C
:10413000883010F0111104C08B2D0E94AD0903C00E
:104140008B2D0E94A6090E94A61140C0302F3F70FF
:10415000B32E802F807F803219F0B29480EFB82286
:10416000112321F1113009F4AEC0CC2009F4B7C0FD
:10417000DD2009F47FC020E0D7014C9111965C91BD
:10418000119712966C91129713967C91139714962F
:104190008C910E94320E8091720381FDB9CFF7019C
:1041A000858180FFB5CF8F70858364C080911A04AC
:1041B00082FD40C0CC20C1F1BB2029F08B2D0E9494
:1041C000B4090E94A61180E00E941918A92DA850D8
:1041D000BB0B149710F40E940006812F902F0E94B1
:1041E000CF0A8111B7C11092BF011092BE01AA205F
:1041F000B1F08091210280FD12C0D70112961C926D
:104200008595859585950E94C712C7010E94CF1A92
:10421000809121028595859585950E94891260E09F
:10422000C7010E94550EBDCA80E00E94B017BB2096
:1042300069F282CFCC2011F1D11004C080914402E8
:104240008B2919C041E0D41206C0809144028B2909
:104250000E949209BBCF80917103823078F3D8120B
:10426000EDCF0E9487099091BD018B2D892B891379
:104270008093BD018B2D0E94A917A8CFD11003C038
:104280000E94870917C08091710351E0D51216C0B2
:10429000823008F49BCF809134038B2109F496CFB0
:1042A0000E9487099091BD018B2D809589238913E8
:1042B0008093BD018B2D0E94A21788CF823000F31E
:1042C000D812DECF83CF80917703CC2021F08D15DB
:1042D00008F47CCFCFCFD81608F078CFEBCFDD2015
:1042E00049F38091750390917603193321F0809101
:1042F0007303909174030E948F0B812F0E94B0175B
:1043000065CF802F86958695837069F0813009F09E
:104310005DCF812F902F9370C11002C090E080E09C
:104320000E94D40553CF812F902F9370C11002C0EB
:1043300090E080E00E94EA0549CF802F837091F5DC
:10434000C11044CF412F429546954770440F440F0A
:10435000812F8F70042E01C0880F0A94EAF7212F55
:10436000207114FF07C02FE030E001C0220F4A95F2
:10437000EAF72095302F369536953370323069F054
:1043800050F440914502313029F0822B84230E9461
:10439000EA121CCF842B822BFACF282B8091450266
:1043A0008227F5CF8695CC2011F0802F817088234D
:1043B00009F40CCF412F429546954770440F440FA6
:1043C000812F8F70042E01C0880F0A94EAF7212FE5
:1043D000207114FF07C02FE030E001C0220F4A9582
:1043E000EAF72095302F369536953370323069F0E4
:1043F00050F440914D04313029F0822B84230E94E7
:104400007812E4CE842B822BFACF282B80914D0496
:104410008227F5CFF02FFF70BF2ECC2029F08F2FF1
:104420000E94C712812F27CF812F0E94A2178B2DA8
:104430000E948912CBCE123F89F160F4103FB9F08F
:10444000113F81F0CC2009F480C0D11061CE802FC3
:104450008F7128C0133F49F1143FA1F780911A04CE
:1044600082FD2FC0802F8F71CC2011F31BC0809153
:104470007703CC2079F0D81608F0A8CE202F2F7122
:1044800081E090E001C0880F2A95EAF790914D04F1
:104490008927B5CF8D1508F499CEF0CF802F8F7175
:1044A000C110C6CF0E94C71291CE80E0CC2009F483
:1044B000A6CF81E0902F9F7101C0880F9A95EAF7EF
:1044C0009ECF80917103823040F1CC20D1F0909149
:1044D00021029770943041F40E94BA09802F8F71A5
:1044E0000E948912A12C72CED816E0F7202F2F71CE
:1044F000B22E822F0E94C71263E08B2D0E94D3122E
:10450000F1CFD81630F00E94BA0964E0802F8F7185
:10451000F5CF81E00E949612E5CFCC2059F0302FE4
:104520003F71B32E832F0E94C71263E08B2D0E9430
:10453000D3124CCE81E00E94961241E04D1508F056
:1045400045CE82E00E94961241CED110CACE802F75
:104550008F716ECFCC2019F0D11045CE48CED1103E
:1045600042CE20E0F70140815181628173818481D4
:104570000E94320E8091720383FF35CE8091BE017E
:104580009091BF01029709F02ECE812F0E94C11891
:104590002ACE0031BFE51B0709F4EEC80131EFE573
:1045A0001E0709F406C96801E7E5DE1A81111EC974
:1045B000FFEFCF16D10411F008F01EC96CE872E0CD
:1045C0008C2D0E94350F892B29F58EE08C9DF001F2
:1045D0008D9DF00D1124EA56FD4F8281813009F046
:1045E000EAC880918C0290918D02892B99F080917C
:1045F0008E0290918F02892B69F0809190029091A8
:1046000091022091920230919302822B932B892B5D
:1046100009F4DBC85801BB243EE0039FF0011124DC
:10462000AF014A565D4F6A01D70112968C91E5564B
:10463000FD4F908180FB90F99083882309F43BC95A
:104640000E94C80590935C0280935B02D60112968B
:104650008C9112978F5F12968C93129780914E04D3
:1046600090913403892B13968C9313978091440275
:1046700014968C9314971696ED91FC91179730979A
:1046800029F01C966D917C91C60109958EE08A9D5A
:10469000F0018B9DF00D1124EA56FD4F858181FFBD
:1046A00007C990E080E090930C0480930D04A4C8A7
:1046B0000031FFE51F0709F478C801312FE5120723
:1046C00009F071CF82E072C80631BCE51B0709F41E
:1046D00097CA8091340382720C3C9CE5190709F457
:1046E00098CC08F018CC063CBCE51B0709F47DCC3F
:1046F00008F0ECCB033CFCE51F0709F46CCC08F098
:10470000D6CB023C3CE5130709F440CCF701868187
:104710009781009709F4CDCC0E940608182F092F25
:10472000F701C280D580D2943FE0D322809121024C
:104730008770C1F0AC2CCC20B1F0892F807F803401
:1047400021F080E2810F883068F080911A0482FFA6
:1047500009C082E00E949612809121028770AA24EB
:10476000A3948111A12C902E92942FE09222FBE031
:10477000F91508F42BCDE92DF0E0E45CFA4C0C942B
:104780002834B0E0A0E0E7ECF3E20C9470348091C0
:10479000DA01807F31F48091D701C0911E0281112E
:1047A00007C0CDB7DEB7E8E00C948C342196C77013
:1047B0008091DD018C17A9F3F090D501E090D6012E
:1047C000C090D801D090D901A6016E2D8F2D0E94E6
:1047D0000D06D0E08111EACF8E0183E0000F111F9A
:1047E0008A95E1F7F801E252FE4F81818E11DECF0A
:1047F00080818F11DBCF82818111D8CFE380F4805B
:10480000EC18FD0860E085ED91E00E94550E65ED25
:1048100071E00E94490FE816F90640F68091DA012E
:104820008F7080618093DA01F801ED51FE4F808135
:104830008F708061808385ED91E00E94CF1A0E9485
:104840005A0AAFCFA5E1B0E0E8E2F4E20C94693493
:104850008C0185E0F801DE01519601900D928A9558
:10486000E1F7D8015C9011966C9011971296EC903C
:1048700012971396CD90DC9060E085ED91E00E9458
:10488000550E85EDA82E81E0B82E8090D80190902D
:10489000D901A4016091D6018091D5010E940D0635
:1048A0008111A8C1F090D701F601E819F9094F016B
:1048B00060E0FF2009F44BC1C5010E94550EB5010F
:1048C0000E94490F7090DA018816990608F0F2C02C
:1048D0004091D8015091D901B090D501A090D60156
:1048E000872D807F6A2D09F08CC08B2D0E940D06CC
:1048F000FE2C811127C0D80111968C9111978A1135
:1049000021C08C918B111EC02091DB013091DC0104
:1049100016968D919C9128173907A1F4E11012C0C9
:10492000872D8F7080618093DA0185ED91E00E9480
:10493000CF1A8091DA01F80185838F2D6596EFE01B
:104940000C948534A601662D852D0E940D06D82E67
:1049500081E08E25D11080E080FF18C04E2D662D9D
:10496000852D0E943A0A882389F08091720380FF86
:104970000DC085ED91E00E94CF1A88E0E5EDF1E0F1
:10498000DF011D928A95E9F7F12CD7CF81E08E25C2
:10499000D11080E0B82FB170CB2E80FF29C04E2DF2
:1049A000662D852D0E943A0AD82E811121C0598A80
:1049B0006A8A89899A890E94080E292F22952F7068
:1049C000223050F0243078F49F7051F0F801958136
:1049D000907F31F4FD2CB1CF9F7011F08823D1F37B
:1049E000805E8830B8F3C8010E94CF1ADC2CF2CF69
:1049F000EE2009F4A2CF8091DA0181608093DA0180
:104A0000C3CF8B2D0E940D06811124C0D8011196B1
:104A10008C9111978A111EC08C918B111BC0209113
:104A2000DB013091DC0116968D919C911797281728
:104A3000390781F4E1100EC015967C92C8010E94DE
:104A4000CF1A88E0F801A5EDB1E001900D928A95AA
:104A5000E1F773CFC8010E94150E882339F1EE20CB
:104A600029F18091DA018032A0F02091D5013091B6
:104A7000D6013A8729871B86DD86CC868E87809172
:104A8000DB019091DC01988B8F87CE0109960E9403
:104A9000CF1A88E0F801A5EDB1E001900D928A955A
:104AA000E1F70E94C123FF24F39447CFC8010E947D
:104AB000CF1AF9CF872D807F09F45BCF9090D50175
:104AC0008090D6014091D8015091D901682D892D4F
:104AD0000E940D0681111CC0F8018181881118C047
:104AE0008081891115C02091DB013091DC01868124
:104AF00097812817390761F4E1100AC07582C8014F
:104B00000E94CF1A88E0D5011D928A95E9F715CF4A
:104B1000C8010E94150E882349F2EE2039F28091D7
:104B2000DA01803208F4B5CF2091D5013091D60159
:104B30003A8329831B82DD82CC828E838091DB01C4
:104B40009091DC0198878F83CE010196A0CF85EDEF
:104B500091E00E94550E65ED71E00E94490F8816A4
:104B6000990680F6FE2CEE2009F4A0CFE090D50146
:104B7000D090D6014091D8015091D9016D2D8E2D44
:104B80000E940D06811128C0F80181818D1124C079
:104B900080818E1121C02091DB013091DC01868162
:104BA000978128173907C1F48091720382FD49CF9C
:104BB0009091DA0190FD45CF907F09F442CF80912A
:104BC000DA018583903F09F439CF982F907F905F69
:104BD0008F70892B858332CFC8010E94150E8111F9
:104BE00058CF8091DA0181608093DA01C8010E9478
:104BF000CF1AA3CEEE2009F459CFC8010E94150E9A
:104C0000F82E882309F452CF88E0F801A5EDB1E031
:104C100001900D928A95E1F78091D5019091D6018E
:104C20000E94080E0E94C12388CEA0E1B0E0EBE113
:104C3000F6E20C94763429873A874B875C876D8738
:104C40007E878F87988BCE0109960E94222481113E
:104C50002FC088E0FE013996DE01119601900D9279
:104C60008A95E1F74C855D856A8589850E940D06E8
:104C700081111EC0A091DD01B0E0CD0101968770C9
:104C8000992720911E0228171906E1F093E0AA0F38
:104C9000BB1F9A95E1F7A252BE4F98E0FE013196F4
:104CA00001900D929A95E1F78093DD010E945A0AD6
:104CB00080911E029091DD01891312C06096E2E09E
:104CC0000C9492340E94EF121092DD0110921E0299
:104CD00088E0E5EDF1E0DF011D928A95E9F7E8CF84
:104CE000B8E08B9FC001112482529E4F0E94222463
:104CF000882321F380911E0290E001968770992706
:104D000080931E02D5CFEF92FF920F931F93CF9304
:104D1000DF9380918003882361F0C0917F038CE052
:104D2000F82E80918003C81748F0109280031092EB
:104D30007F03CDB7DEB7E6E00C948E34EE24E39427
:104D4000EC0EE0927F030C2F10E0CF9DE0011124C8
:104D5000CF57DC4F4B815C81698188810E940D06B1
:104D600081111DC08E819F81892B21F488859985B1
:104D7000019651F4288139814A815B816C817D8162
:104D80008E819F810E941526F09EF001F19EF00D0C
:104D90001124EF57FC4F1482138210924E04CE2D33
:104DA000C0CF109208041092070410921D01809148
:104DB0000604809305040E9446060E9483260895F7
:104DC000B0E0A0E0E6EEF6E20C946734C091050492
:104DD00097E0892E01E010E02CE0322E3EEF932E7A
:104DE00044244394809106048C1309C00E948326B6
:104DF0000E944606CDB7DEB7E1E10C948334D0E0E3
:104E0000FE01EE0FFF1FE350FC4F80819181889ED1
:104E1000D001899EB00D1124AF51BC4F14962C9136
:104E20001497211158C050908003E1E8F3E030E07E
:104E300020E0712C5D01251508F04BC0E284F3845D
:104E4000D501CD90DC906FEF7FEF612C462D50E0C7
:104E5000DA01AA0FBB1FAC0DBD1D0D90BC91A02D9A
:104E6000109731F0EA16FB0609F4BA016394EECF0D
:104E70006F3F7607A9F1D80102C0AA0FBB1F6A9540
:104E8000E2F77A2AB801062C02C0660F771F0A944F
:104E9000E2F7AB014150510974161506F9F4329E40
:104EA000F001339EF00D1124EF57FC4F889ED00186
:104EB000899EB00D1124AF51BC4F12962D913C919B
:104EC00013973783268390829182918780871596E6
:104ED0004C920E9418062196C37084CF14821382CC
:104EE0002F5F3F4F3C96A7CFA9E1B0E0EAE7F7E29A
:104EF0000C946634942F498B252F5A8B6B8B7C8BAB
:104F00008D8B4C895D89622F892F0E940D0681113E
:104F100009C08091BE019091BF0101969093BF019D
:104F20008093BE018B89811110924E041D861E86CE
:104F30001F86188A85E0FE017196DE0119960190A0
:104F40000D928A95E1F780911A0482FF1EC080912C
:104F5000570390915803892BC1F00E94C8052091F6
:104F60001F0230912002821B930B20915703309136
:104F700058038217930720F08091210282FFE2C13B
:104F80000E94C10981110E9487094C855D856A854F
:104F900089850E940D06811111C061E0CE0109963C
:104FA0000E94550E6C018B8527EFC2162CE5D206A8
:104FB00081F4882321F181E080931D0129853A85C0
:104FC0004B855C856D857E858F8598890E94152629
:104FD000C6C038EFC3163CE5D30629F4882379F020
:104FE0000E94D126EBCF49EFC4164CE5D40639F424
:104FF000882329F080911D018111F2CFDCCF01EED1
:1050000013E0512CB12CA12C22242394312C2EEF0F
:10501000422EF8014081518188248A94982C20E006
:10502000822F90E0FC01EE0FFF1FE40FF51F60815F
:1050300071816115710531F0C616D70609F44C016E
:105040002F5FEECFF12CFFEF8F169F0609F449C0BA
:10505000F8014481F0901D018F2D411180E0F82F5F
:10506000F170FF2EF801E58086819B85992309F474
:10507000F8C0FF2009F4F5C060906B0370906C03DA
:10508000E11013C0A101082C01C0440F0A94EAF7F3
:10509000842B868380917D0390917E0386159705EE
:1050A00020F470927E0360927D03C10102C0880FDC
:1050B000991F2A95E2F70197F8012681281719060A
:1050C00081F48091070490910804009709F44BC083
:1050D0000E94B9056816790608F045C021E0F8017C
:1050E00024835F28FFEFAF1ABF0A095F1F4F24E038
:1050F000A216B10409F08DCF8B85882309F40DC168
:10510000552009F40AC10E94C805909308048093B1
:10511000070480918003883010F591E0980F9093F8
:10512000800398E0FE013996DE01119601900D9200
:105130009A95E1F73CE0839FC00111248F579C4F63
:1051400028E0FE013196DC0101900D922A95E1F7ED
:105150002FEF3FEFFC0131872087D386C286699607
:10516000E2E10C9482348091050450910604982F5A
:10517000F0E0E0E0851314C090930504E017F10718
:1051800009F4AFCF90E0FC01EE0FFF1FE350FC4F9E
:10519000B182A08201968370992780930604A1CFE3
:1051A000682E712CF301EE0FFF1FE350FC4F20819E
:1051B000318147E0429FD001439FB00D1124AF5190
:1051C000BC4F6D917C911197798F688F40E020E002
:1051D00030E0E32FF0E0EE0FFF1F688D798DE60FD2
:1051E000F71F8080918081149104E1F0F801019013
:1051F000F081E02DFF8BEE8B20E005C08616970630
:1052000009F44F2D2F5FE22FF0E0EE0FFF1F6E89A4
:105210007F89E60FF71F608171816115710571F754
:105220003F5FD7CF4423D1F0F801231708F0FD01E9
:1052300021E024830E171F0721F490930504F42E18
:1052400050CF981305C0AE17BF0711F49F5F93703E
:1052500093012F5F3F4F822F83708CCFF0E0E0E00F
:10526000F7CF90E0E11020C0B10102C0660F771FB8
:105270002A95E2F79B01215031098217930731F4F7
:10528000442309F448C0C5010E941806C101082C36
:1052900001C0880F0A94EAF7982F9095F80186814B
:1052A00089238683FE2C1DCF9C01082C02C03595D6
:1052B00027950A94E2F7A90141705527BC01615076
:1052C000710986239723892B11F5452B01F1F801EC
:1052D00082819381892BC1F01B821C821D821E82D8
:1052E00049824A820E94C8058160582F9D838C8321
:1052F000F801828193818F83988729813A814B813C
:105300006D817E810E941526F8011582BFCFF22F94
:10531000F170EF2EBBCFEF2CB9CF909105048091A7
:105320000604981731F00E94E026552009F446CE75
:1053300016CF0E94832610920804109207040E9440
:105340004606F3CF82E00E9496121ACEA5E0B0E0A6
:10535000ECEAF9E20C9476349093310380933003B5
:10536000811520E2920730F40E9401182596E2E0B0
:105370000C94923480EF89838A831B820E94C80533
:105380008160782F9D838C8349815A816B818D81C7
:105390000E947427EBCF0F931F93CF93DF938C0161
:1053A000EB016CE872E08C2F0E94350F892BA1F481
:1053B00080917303909174030E948F0BDD27CC576B
:1053C000DD4F8881F801128218828330F1F048F4B1
:1053D000813059F0823081F0DF91CF911F910F9190
:1053E00008958430B9F08530B9F780918C0290919E
:1053F0008D02009789F306C080918E0290918F02F2
:10540000009799F30E94A629E7CF8091900290918E
:105410009102F6CF8091920290919302009791F7BA
:1054200020918C0230918D0280918E0290918F029A
:1054300021153105F1F2009729F7C901E3CFA5E065
:10544000B0E0E5E2FAE20C94763490933103809375
:105450003003811520E2920730F40E94EA19259664
:10546000E2E00C94923480EF89838A8381E08B831D
:105470000E94C8058160782F9D838C8349815A8161
:105480006B818D810E947427EACFCF93DF93EC016B
:105490000E941F2A80917303909174030E948F0BC6
:1054A000CE010E94A629DF91CF9108950F931F93FB
:1054B000CF93DF938C01862F6CE872E00E94350F4A
:1054C000892BB1F4C0918C02D0918D02209781F08C
:1054D000F8018281833051F4CE010E94452ACE0129
:1054E0000E94452ACE010E94452A02C08430D0F78E
:1054F000DF91CF911F910F9108950F931F93CF9339
:10550000DF938C01EB016CE872E08C2F0E94350F69
:10551000892B09F05CC0FE01FF27D80112968C91FF
:105520001297EC57FD4F8130B9F415969C9192FF7C
:1055300002C080830AC090FFFCCF82E0808380910C
:105540008E0290918F020097B9F480918C02909115
:105550008D020097E1F110C08230B9F515968C915B
:1055600082FD28C080FD0BC083E080838091900283
:1055700090919102009701F10E941F2A28C084E0B7
:10558000808380919202909193020097A9F7809175
:105590008C0290918D020097F9F00E94452A80912B
:1055A0008E0290918F02009739F780918C02909132
:1055B0008D02E2CF85E0808380918C0290918D02F4
:1055C000009729F00E94452AF0CF86E08083DF9182
:1055D000CF911F910F91089580918E0290918F022B
:1055E000B8CF90E080E00E94EE34883E9E4F19F4E0
:1055F0000E94630E089580E008951F920F920FB6E7
:105600000F9211242F933F934F935F936F937F9348
:105610008F939F93AF93BF93CF93DF93EF93FF93BA
:10562000D091E900DF708091EC00C82FC17080FD3F
:10563000C0E81092E9008091F000877F8093F0002D
:1056400078940E9405131092E9008091F000886020
:105650008093F000CD2BCF70C093E900FF91EF91C4
:10566000DF91CF91BF91AF919F918F917F916F917A
:105670005F914F913F912F910F900FBE0F901F9010
:1056800018951F920F920FB60F9211242F933F93EC
:105690004F935F936F937F938F939F93AF93BF933A
:1056A000EF93FF938091E10082FF09C08091E200B7
:1056B00082FF05C08091E1008B7F8093E1008091A3
:1056C000DA0080FF24C08091D80080FF20C0809144
:1056D000DA008E7F8093DA008091D90080FF9DC030
:1056E00080E189BD82E189BD09B400FEFDCF81E082
:1056F00080934C0480911E04811109C00E94F6031E
:105700000E94E9048091E20084608093E20080912D
:10571000E10080FF17C08091E20080FF13C08091FC
:10572000E2008E7F8093E2008091E20080618093AE
:10573000E2008091D80080628093D80019BC85E097
:1057400080934C048091E10084FF2BC08091E200A3
:1057500084FF27C080E189BD82E189BD89B5982F8A
:10576000917080FFFBCF8091D8008F7D8093D8000F
:105770008091E1008F7E8093E1008091E2008F7E36
:105780008093E2008091E20081608093E20080914A
:105790004304882309F447C084E080934C0480913B
:1057A0004C048091E10083FF27C08091E20083FFD9
:1057B00023C08091E100877F8093E10082E08093A5
:1057C0004C04109243048091E1008E7F8093E100AD
:1057D0008091E2008E7F8093E2008091E200806100
:1057E0008093E20042E060E080E00E94B704809194
:1057F000F00088608093F000FF91EF91BF91AF912E
:105800009F918F917F916F915F914F913F912F91D8
:105810000F900FBE0F901F90189519BC10924C045A
:1058200010921E0474CF8091E30087FD93E0909363
:105830004C04B5CF78941F921FB61F9211248F93FA
:105840009F93AF93BF938091150490911604A091FC
:105850001704B09118040196A11DB11D8093150481
:1058600090931604A0931704B0931804BF91AF91BE
:105870009F918F911F901FBE1F9018951F921FB66A
:105880001F9211248F939F93AF93BF938091140421
:10589000811113C08091150490911604A0911704F2
:1058A000B09118044196A11DB11D809315049093E9
:1058B0001604A0931704B0931804BF91AF919F9161
:1058C0008F911F901FBE1F901895CDB7DEB7ED9733
:1058D0000FB6F894DEBF0FBECDBF85B7806885BF19
:1058E00085B7806885BF84B7877F84BF0FB6F8947B
:1058F000A89580916000886180936000109260009C
:105900000FBE80E890E00FB6F8948093610090930A
:1059100061000FBE8AEA97E090939B0180939A0101
:105920000E94DA060E94670F0E94670D0E94F6032C
:105930000E94E9048091E20084608093E200789400
:1059400080914C048823A1F01091E9001F70909180
:10595000EC00892F817090FD80E8182B1092E900EF
:105960008091E80083FD0E9405131F701093E900E9
:1059700082E084BD93E095BD9AEF97BD80936E0061
:105980000E94630E811102C00E94871608E511E093
:105990004FE5E42E41E0F42ED8018D918D018F3F2B
:1059A00011F00E94AC07E016F106B1F70FE511E027
:1059B000F80181918F018F3F11F00E94AC07F1E057
:1059C00006361F07A9F787E0EAE6F2E0DF01282F95
:1059D0001D922A95E9F7E9E4F2E0DF011D928A952C
:1059E000E9F70E94F12A811102C00E94971682E015
:1059F00090E00E94E034809353020E947C0E9093CA
:105A00001A04809319040E94F810EFE3FCE931971F
:105A1000F1F700C000000E94F81080916A0280FF38
:105A200008C06FEF7FEF90E080E00E9412350E9487
:105A3000A80583E090E00E94E0340E94EA12809181
:105A40005002811133C00E94F12A811104C00E94CA
:105A500097160E94E81088E090E00E94E834609376
:105A60007F027093800280938102909382026E7F06
:105A700071F40E94E81088E090E00E94E83460939E
:105A80007F027093800280938102909382020E9431
:105A900005071092780280917F0280FF04C060E0C9
:105AA00086950E94811081E08093500280E091E011
:105AB00090931104809310048AE692E0F7E0F80FC7
:105AC000FDAF2E012BE2420E511C80914C0430E4BC
:105AD000F32E00E112E1853009F485C00E94F81030
